{
  "_format": "hh-sol-artifact-1",
  "contractName": "Lottery",
  "sourceName": "contracts/Lottery.sol",
  "abi": [
    {
      "inputs": [],
      "stateMutability": "nonpayable",
      "type": "constructor"
    },
    {
      "inputs": [],
      "name": "getParticipantsCount",
      "outputs": [
        {
          "internalType": "uint256",
          "name": "",
          "type": "uint256"
        }
      ],
      "stateMutability": "view",
      "type": "function"
    },
    {
      "inputs": [],
      "name": "lastWinner",
      "outputs": [
        {
          "internalType": "address",
          "name": "",
          "type": "address"
        }
      ],
      "stateMutability": "view",
      "type": "function"
    },
    {
      "inputs": [
        {
          "internalType": "uint256",
          "name": "",
          "type": "uint256"
        }
      ],
      "name": "participants",
      "outputs": [
        {
          "internalType": "address",
          "name": "",
          "type": "address"
        }
      ],
      "stateMutability": "view",
      "type": "function"
    },
    {
      "inputs": [],
      "name": "participate",
      "outputs": [],
      "stateMutability": "payable",
      "type": "function"
    },
    {
      "inputs": [],
      "name": "test",
      "outputs": [
        {
          "internalType": "uint256",
          "name": "",
          "type": "uint256"
        }
      ],
      "stateMutability": "view",
      "type": "function"
    }
  ],
  "bytecode": "0x608060405234801561001057600080fd5b50662386f26fc100006001819055506002600081905550602a6004819055506109b28061003e6000396000f3fe60806040526004361061004a5760003560e01c806335c1d3491461004f578063cabfaa181461008c578063d11711a2146100b7578063f8a8fd6d146100c1578063fe188184146100ec575b600080fd5b34801561005b57600080fd5b506100766004803603810190610071919061051c565b610117565b604051610083919061058a565b60405180910390f35b34801561009857600080fd5b506100a1610156565b6040516100ae91906105b4565b60405180910390f35b6100bf610163565b005b3480156100cd57600080fd5b506100d661026e565b6040516100e391906105b4565b60405180910390f35b3480156100f857600080fd5b50610101610274565b60405161010e919061058a565b60405180910390f35b6002818154811061012757600080fd5b906000526020600020016000915054906101000a900473ffffffffffffffffffffffffffffffffffffffff1681565b6000600280549050905090565b61016b61029a565b156101ab576040517f08c379a00000000000000000000000000000000000000000000000000000000081526004016101a29061062c565b60405180910390fd5b6001543410156101f0576040517f08c379a00000000000000000000000000000000000000000000000000000000081526004016101e790610698565b60405180910390fd5b6002339080600181540180825580915050600190039060005260206000200160009091909190916101000a81548173ffffffffffffffffffffffffffffffffffffffff021916908373ffffffffffffffffffffffffffffffffffffffff16021790555060005461025e610156565b0361026c5761026b610348565b5b565b60045481565b600360009054906101000a900473ffffffffffffffffffffffffffffffffffffffff1681565b600080600090505b6102aa610156565b81101561033f573373ffffffffffffffffffffffffffffffffffffffff16600282815481106102dc576102db6106b8565b5b9060005260206000200160009054906101000a900473ffffffffffffffffffffffffffffffffffffffff1673ffffffffffffffffffffffffffffffffffffffff160361032c576001915050610345565b808061033790610716565b9150506102a2565b50600090505b90565b6000600261035461045b565b81548110610365576103646106b8565b5b9060005260206000200160009054906101000a900473ffffffffffffffffffffffffffffffffffffffff16905060008173ffffffffffffffffffffffffffffffffffffffff16476040516103b89061078f565b60006040518083038185875af1925050503d80600081146103f5576040519150601f19603f3d011682016040523d82523d6000602084013e6103fa565b606091505b505090508061040857600080fd5b81600360006101000a81548173ffffffffffffffffffffffffffffffffffffffff021916908373ffffffffffffffffffffffffffffffffffffffff1602179055506002600061045791906104a3565b5050565b6000610465610156565b4442600260405160200161047b939291906108e3565b6040516020818303038152906040528051906020012060001c61049e919061094b565b905090565b50805460008255906000526020600020908101906104c191906104c4565b50565b5b808211156104dd5760008160009055506001016104c5565b5090565b600080fd5b6000819050919050565b6104f9816104e6565b811461050457600080fd5b50565b600081359050610516816104f0565b92915050565b600060208284031215610532576105316104e1565b5b600061054084828501610507565b91505092915050565b600073ffffffffffffffffffffffffffffffffffffffff82169050919050565b600061057482610549565b9050919050565b61058481610569565b82525050565b600060208201905061059f600083018461057b565b92915050565b6105ae816104e6565b82525050565b60006020820190506105c960008301846105a5565b92915050565b600082825260208201905092915050565b7f5573657220657869737473000000000000000000000000000000000000000000600082015250565b6000610616600b836105cf565b9150610621826105e0565b602082019050919050565b6000602082019050818103600083015261064581610609565b9050919050565b7f4e6f7420656e6f7567682066756e647300000000000000000000000000000000600082015250565b60006106826010836105cf565b915061068d8261064c565b602082019050919050565b600060208201905081810360008301526106b181610675565b9050919050565b7f4e487b7100000000000000000000000000000000000000000000000000000000600052603260045260246000fd5b7f4e487b7100000000000000000000000000000000000000000000000000000000600052601160045260246000fd5b6000610721826104e6565b91507fffffffffffffffffffffffffffffffffffffffffffffffffffffffffffffffff8203610753576107526106e7565b5b600182019050919050565b600081905092915050565b50565b600061077960008361075e565b915061078482610769565b600082019050919050565b600061079a8261076c565b9150819050919050565b6000819050919050565b6107bf6107ba826104e6565b6107a4565b82525050565b600081549050919050565b600081905092915050565b60008190508160005260206000209050919050565b6107f981610569565b82525050565b600061080b83836107f0565b60208301905092915050565b60008160001c9050919050565b600073ffffffffffffffffffffffffffffffffffffffff82169050919050565b600061085761085283610817565b610824565b9050919050565b600061086a8254610844565b9050919050565b6000600182019050919050565b6000610889826107c5565b61089381856107d0565b935061089e836107db565b8060005b838110156108d6576108b38261085e565b6108bd88826107ff565b97506108c883610871565b9250506001810190506108a2565b5085935050505092915050565b60006108ef82866107ae565b6020820191506108ff82856107ae565b60208201915061090f828461087e565b9150819050949350505050565b7f4e487b7100000000000000000000000000000000000000000000000000000000600052601260045260246000fd5b6000610956826104e6565b9150610961836104e6565b9250826109715761097061091c565b5b82820690509291505056fea2646970667358221220f2b295aa985ef665507a680e83ef82cb82f28ca19c73b79bf4cad185e234a9d964736f6c63430008110033",
  "linkReferences": {},
  "deployedLinkReferences": {}
}